S011000050726F796563746F322E737265638C
S11300000C9449000C94F2040C9419050C946600A9
S11300100C9466000C9466000C9466000C946600C4
S11300200C9466000C9466000C9466000C946600B4
S11300300C9466000C9466000C9466000C946600A4
S11300400C9466000C9466000C948E050C94660067
S11300500C9466000C9421040C9466000C946600C5
S11300600C9466000C946600FB0203030B03130359
S11300701B0324032D0336033F037E037E037E0309
S11300807E037E037E037E034A03570360036A03F1
S1130090740311241FBECFEFD8E0DEBFCDBF11E043
S11300A0A0E0B1E0EEE1F1E102C005900D92A831CB
S11300B0B107D9F721E0A8E1B1E001C01D92A13355
S11300C0B207E1F70E9483030C948D080C9400009E
S11300D0ECE7F0E0108280818064808380818F77F8
S11300E0808380818F7D8083EAE7F0E010828081C5
S11300F08068808380818860808380818160808340
S1130100808182608083808184608083EEE7F0E078
S1130110808181608083808182608083808184602B
S113012080838081886080830895ECE7F0E090818B
S1130130907F892B8083EAE7F0E08081806480836C
S113014080917A0086FDFCCF8091780090917900AF
S11301500895F999FECF92BD81BD60BD8FB38460CF
S11301608FBB8FB382608FBB0895F999FECF92BD88
S113017081BD8FB381608FBB80B508958BB18F7EB5
S11301808BB98BB18F778BB985B18E7F85B980E0C0
S11301900E949500BC0180E090E00E94630720E08B
S11301A030EC4FE754E40E94C20620E030E040EA1D
S11301B050E40E941A0860932801709329018093E7
S11301C02A0190932B0181E00E949500BC0180E0FC
S11301D090E00E94630720E030EC4FE754E40E9473
S11301E0C20620E030E040EA50E40E941A0860931E
S11301F0240170932501809326019093270182E0C6
S11302000E949500BC0180E090E00E94630720E01A
S113021030EC4FE754E40E94C20620E030E040EAAC
S113022050E40E941A0860931C0170931D0180938E
S11302301E0190931F0183E00E949500BC0180E0A1
S113024090E00E94630720E030EC4FE754E40E9402
S1130250C20620E030E040EA50E40E941A086093AD
S1130260200170932101809322019093230108952A
S11302708BB18F7E8BB98BB180688BB985B18E7F42
S113028085B980E00E949500BC0180E090E00E9466
S1130290630720E030EC4FE754E40E94C20620E0FC
S11302A030E040EA50E40E941A08609328017093F9
S11302B0290180932A0190932B0181E00E949500EB
S11302C0BC0180E090E00E94630720E030EC4FE73F
S11302D054E40E94C20620E030E040EA50E40E9468
S11302E01A0860932401709325018093260190934A
S11302F0270182E00E949500BC0180E090E00E940A
S1130300630720E030EC4FE754E40E94C20620E08B
S113031030E040EA50E40E941A0860931C01709394
S11303201D0180931E0190931F0183E00E9495009C
S1130330BC0180E090E00E94630720E030EC4FE7CE
S113034054E40E94C20620E030E040EA50E40E94F7
S11303501A086093200170932101809322019093E5
S113036023010895CF92DF92EF92FF928BB18F7E9B
S11303708BB98BB18F778BB985B1816085B9809149
S11303802D0181111CC08AE090E00E94B500809389
S11303901B0184E190E00E94B50080931A018EE174
S11303A090E00E94B5008093190188E290E00E94D9
S11303B0B5008093180181E080932C0158C08130EE
S11303C0E1F481E090E00E94B50080931B0182E09B
S11303D090E00E94B50080931A0183E090E00E94AF
S11303E0B5008093190184E090E00E94B5008093E9
S11303F0180182E080932C013AC08230E1F485E058
S113040090E00E94B50080931B0186E090E00E947A
S1130410B50080931A0187E090E00E94B5008093B4
S1130420190188E090E00E94B5008093180183E0F0
S113043080932C011CC08330D1F48BE090E00E94A7
S1130440B50080931B018CE090E00E94B50080937E
S11304501A018DE090E00E94B500809319018EE0AE
S113046090E00E94B5008093180110922C016091D5
S11304701B0170E080E090E00E9465076B017C0145
S113048020E030E040E450E40E941508181624F4FB
S11304908AE10E94100611C020E030E040E050E400
S11304A0C701B6010E94BD06882324F482E10E949C
S11304B0100603C086E10E94100660911A0170E0E4
S11304C080E090E00E9465076B017C0120E030E051
S11304D040E450E40E941508181624F48CE10E94AC
S11304E0120611C020E030E040E050E4C701B6013C
S11304F00E94BD06882324F48FE00E94120603C0E4
S113050086E10E9412066091190170E080E090E09B
S11305100E9465076B017C0120E030E040E450E478
S11305200E94150818162CF488E998E00E946E06BB
S113053013C020E030E040E050E4C701B6010E945F
S1130540BD0688232CF488E49DE00E946E0604C056
S113055080EF9AE00E946E066091180170E080E0DE
S113056090E00E9465076B017C0120E030E040E4EC
S113057050E40E94150818162CF488E998E00E94AB
S1130580730613C020E030E040E050E4C701B60138
S11305900E94BD0688232CF488E49DE00E94730623
S11305A004C080EF9AE00E947306FF90EF90DF9002
S11305B0CF9008958BB180618BB98BB18F778BB954
S11305C085B18E7F85B982E091E00E94B00680916A
S11305D0000190910101892BD1F3E09130018E2F1C
S11305E090E0FC01F197E531F10508F087C0EC5C7F
S11305F0FF4F0C9487088AE10E94100610920101B3
S113060010920001089582E10E94100610920101E7
S11306101092000108958CE10E94120610920101CB
S11306201092000108958FE00E94120610920101B9
S113063010920001089588E49DE00E946E061092D5
S1130640010110920001089588E998E00E946E0665
S11306501092010110920001089588E998E00E9427
S113066073061092010110920001089588E49DE040
S11306700E9473061092010110920001089586E110
S11306800E94100686E10E94120610920101109247
S11306900001089580EF9AE00E946E0680EF9AE0D0
S11306A00E947306109201011092000108951092A5
S11306B02D010E94B20110920101109200010895CF
S11306C081E080932D010E94B201109201011092E9
S11306D00001089582E080932D010E94B2011092DE
S11306E0010110920001089583E080932D010E947E
S11306F0B2011092010110920001089510920101BB
S1130700109200010895F8948FEF84B98AB180693A
S11307108AB981E00E94A60581E00E94BD0560E0DF
S113072074E080E00E94D40586E10E94100660E037
S113073074E080E00E94F60586E10E9412064FE311
S11307405CE968E070E080E00E94140680EF9AE0C3
S11307500E946E064FE35CE968E070E080E00E946E
S1130760410680EF9AE00E9473060E94680060E8E8
S113077075E281E00E94780665E081E090E00E94E5
S1130780A90060E082E090E00E94A90065E083E0B7
S113079090E00E94A90060E084E090E00E94A9003B
S11307A060E085E090E00E94A90065E086E090E0CA
S11307B00E94A90065E087E090E00E94A90060E043
S11307C088E090E00E94A90060E08BE090E00E9445
S11307D0A90060E08CE090E00E94A90060E08DE058
S11307E090E00E94A90065E08EE090E00E94A900DC
S11307F010922D0110922F01789480912F01813055
S113080061F028F0823079F0833099F017C00E94AB
S1130810BE0081E080932E01F0CF0E94DA0282E0D4
S113082080932E01EACF0E94380183E080932E0149
S1130830E4CF0E94B20110922E01DFCF10922F015B
S1130840DCCF1F920F920FB60F921124CF92DF923A
S1130850EF92FF922F933F934F935F936F937F9306
S11308608F939F93AF93BF93EF93FF93C09028010F
S1130870D0902901E0902A01F0902B0126E636E67B
S113088046E250E4C701B6010E941508181624F484
S11308908AE10E94100611C023E333E343E150E4EC
S11308A0C701B6010E94BD06882324F482E10E9498
S11308B0100603C086E10E941006C0902401D09067
S11308C02501E0902601F090270126E636E646E26F
S11308D050E4C701B6010E941508181624F48CE1EF
S11308E00E94120611C023E333E343E150E4C7013D
S11308F0B6010E94BD06882324F48FE00E941206EC
S113090003C086E10E941206C0902001D09021010C
S1130910E0902201F090230126E636E646E250E418
S1130920C701B6010E94150818162CF488E998E04E
S11309300E946E0613C023E333E343E150E4C7018E
S1130940B6010E94BD0688232CF488E49DE00E9431
S11309506E0604C080EF9AE00E946E06C0901C01EF
S1130960D0901D01E0901E01F0901F0126E636E6AE
S113097046E250E4C701B6010E94150818162CF48B
S113098088E998E00E94730613C023E333E343E14C
S113099050E4C701B6010E94BD0688232CF488E404
S11309A09DE00E94730604C080EF9AE00E947306E3
S11309B0EAE7F0E0808180618083FF91EF91BF914D
S11309C0AF919F918F917F916F915F914F913F91E3
S11309D02F91FF90EF90DF90CF900F900FBE0F906C
S11309E01F9018951F920F920FB60F9211242F93F8
S11309F08F939F932FEF83EC99E021508040904098
S1130A00E1F700C0000080912F01813031F481E0D2
S1130A1090E0909301018093000180912E018093D6
S1130A202F019F918F912F910F900FBE0F901F90C8
S1130A3018951F920F920FB60F9211242F933F9384
S1130A404F935F936F937F938F939F93AF93BF93D2
S1130A50EF93FF932FEF81EE94E02150804090407C
S1130A60E1F700C0000080912F018230F1F585B1DB
S1130A70886085B9609128017091290180912A01CB
S1130A8090912B010E9434078AE090E00E94A90013
S1130A906091240170912501809126019091270194
S1130AA00E94340784E190E00E94A9006091200133
S1130AB07091210180912201909123010E943407B9
S1130AC08EE190E00E94A90060911C0170911D01CB
S1130AD080911E0190911F010E94340788E290E0EA
S1130AE00E94A90085B1877F85B980912F01833049
S1130AF021F480912C0180932D01FF91EF91BF91FE
S1130B00AF919F918F917F916F915F914F913F91A1
S1130B102F910F900FBE0F901F9018951F920F9258
S1130B200FB60F9211248F939F9381E090E09093DE
S1130B300101809300018091C600809330019F9150
S1130B408F910F900FBE0F901F901895882331F04E
S1130B50E9E6F0E080818360808305C0E9E6F0E0A7
S1130B608081826080838BB184608BB98DB3816016
S1130B708DBB8AB18B7F8AB90895882331F0E9E669
S1130B80F0E080818C60808305C0E9E6F0E080813C
S1130B90886080838BB188608BB98DB382608DBB94
S1130BA08AB1877F8AB908959AB190649AB994B545
S1130BB0936094BD882321F084B5806C84BD03C008
S1130BC084B5806884BD611584E0780721F485B517
S1130BD0856085BD08956034710521F485B5836011
S1130BE085BD089585B5816085BD08959AB19062EB
S1130BF09AB994B5936094BD882321F084B5806339
S1130C0084BD03C084B5806284BD6115744021F441
S1130C1085B5856085BD089585B5816085BD0895D8
S1130C2087BD089588BD089594B1926094B9E0E8B1
S1130C30F0E0908192609083E1E8F0E09081986127
S1130C4090835093870040938600882331F0E0E836
S1130C50F0E08081806C808305C0E0E8F0E0808172
S1130C60806880836830710531F4E1E8F0E08081C8
S1130C70826080830895E1E8F0E08081846080836D
S1130C80089594B1946094B9E0E8F0E090819260A2
S1130C909083E1E8F0E0908198619083509387001D
S1130CA040938600882331F0E0E8F0E0808180639F
S1130CB0808305C0E0E8F0E0808180628083683052
S1130CC0710531F4E1E8F0E0808182608083089569
S1130CD0E1E8F0E080818460808308959093890046
S1130CE080938800089590938B0080938A000895E0
S1130CF09AB19E7F9AB99AB192609AB91092C00043
S1130D00882379F0E0ECF0E08081826080836038B1
S1130D10754291F48FEC90E09093C5008093C400E9
S1130D200BC01092C0006038754231F487E690E041
S1130D309093C5008093C400E1ECF0E010828081C0
S1130D4088698083E2ECF0E0108280818660808391
S1130D5008959091C00095FFFCCF8093C60008953C
S1130D60CF93DF93EC0103C00E94A90621968881EA
S1130D708111FACFDF91CF9108950E94A00708F462
S1130D8081E008950E94D6060C94DB070E94D407E4
S1130D9058F00E94CD0740F029F45F3F29F00C94ED
S1130DA0C40751110C940F080C94CA070E94EC0755
S1130DB068F39923B1F3552391F3951B550BBB2786
S1130DC0AA2762177307840738F09F5F5F4F220FCB
S1130DD0331F441FAA1FA9F335D00E2E3AF0E0E8C2
S1130DE032D091505040E695001CCAF72BD0FE2F0C
S1130DF029D0660F771F881FBB1F261737074807A0
S1130E00AB07B0E809F0BB0B802DBF01FF27935857
S1130E105F4F3AF09E3F510578F00C94C4070C9450
S1130E200F085F3FE4F3983ED4F386957795679572
S1130E30B795F7959F5FC9F7880F911D969587958C
S1130E4097F90895E1E0660F771F881FBB1F6217AB
S1130E5073078407BA0720F0621B730B840BBA0B69
S1130E60EE1F88F7E09508950E94F40788F09F57D5
S1130E7098F0B92F9927B751B0F0E1F0660F771FBA
S1130E80881F991F1AF0BA95C9F714C0B13091F0B0
S1130E900E940E08B1E008950C940E08672F782F75
S1130EA08827B85F39F0B93FCCF386957795679575
S1130EB0B395D9F73EF490958095709561957F4FE1
S1130EC08F4F9F4F0895E89409C097FB3EF4909587
S1130ED08095709561957F4F8F4F9F4F9923A9F00F
S1130EE0F92F96E9BB279395F6958795779567959E
S1130EF0B795F111F8CFFAF4BB0F11F460FF1BC0E2
S1130F006F5F7F4F8F4F9F4F16C0882311F096E974
S1130F1011C0772321F09EE8872F762F05C0662322
S1130F2071F096E8862F70E060E02AF09A95660FDB
S1130F30771F881FDAF7880F9695879597F9089594
S1130F40990F0008550FAA0BE0E8FEEF16161706D6
S1130F50E807F907C0F012161306E407F50798F03E
S1130F60621B730B840B950B39F40A2661F0232B57
S1130F70242B252B21F408950A2609F4A140A695D3
S1130F808FEF811D811D089597F99F6780E870E0B8
S1130F9060E008959FEF80EC089500240A941616EB
S1130FA0170618060906089500240A941216130653
S1130FB0140605060895092E0394000C11F48823E1
S1130FC052F0BB0F40F4BF2B11F460FF04C06F5FFD
S1130FD07F4F8F4F9F4F089557FD9058440F551FD3
S1130FE059F05F3F71F04795880F97FB991F61F0A7
S1130FF09F3F79F087950895121613061406551F1E
S1131000F2CF4695F1DF08C0161617061806991F89
S1131010F1CF86957105610508940895E894BB277E
S113102066277727CB0197F908950E94A00708F453
S11310308FEF08950E942D080C94DB070E94CD07C2
S113104038F00E94D40720F0952311F00C94C407C3
S11310500C94CA0711240C940F080E94EC0770F337
S1131060959FC1F3950F50E0551F629FF001729F49
S1131070BB27F00DB11D639FAA27F00DB11DAA1F58
S1131080649F6627B00DA11D661F829F2227B00DA5
S1131090A11D621F739FB00DA11D621F839FA00D30
S11310A0611D221F749F3327A00D611D231F849F80
S11310B0600D211D822F762F6A2F11249F575040D7
S11310C09AF0F1F088234AF0EE0FFF1FBB1F661F52
S11310D0771F881F91505040A9F79E3F510580F01B
S11310E00C94C4070C940F085F3FE4F3983ED4F3C8
S11310F0869577956795B795F795E7959F5FC1F7BF
S1131100FE2B880F911D9695879597F90895EE0FFC
S1111110FF1F0590F491E02D0994F894FFCF91
S113111E01000ABF517565206465736561732068AB
S10B112E616365723F0A0000D1
S9030000FC
